{
  "_format": "hh-sol-artifact-1",
  "contractName": "ClassRegistration",
  "sourceName": "contracts/ClassRegistration.sol",
  "abi": [
    {
      "inputs": [],
      "stateMutability": "nonpayable",
      "type": "constructor"
    },
    {
      "anonymous": false,
      "inputs": [
        {
          "indexed": false,
          "internalType": "string",
          "name": "name",
          "type": "string"
        },
        {
          "indexed": false,
          "internalType": "uint256",
          "name": "rollNumber",
          "type": "uint256"
        },
        {
          "indexed": false,
          "internalType": "uint256",
          "name": "rollDate",
          "type": "uint256"
        }
      ],
      "name": "StudentRegistered",
      "type": "event"
    },
    {
      "anonymous": false,
      "inputs": [
        {
          "indexed": false,
          "internalType": "uint256",
          "name": "rollNumber",
          "type": "uint256"
        }
      ],
      "name": "StudentRemoved",
      "type": "event"
    },
    {
      "inputs": [],
      "name": "admin",
      "outputs": [
        {
          "internalType": "address",
          "name": "",
          "type": "address"
        }
      ],
      "stateMutability": "view",
      "type": "function"
    },
    {
      "inputs": [
        {
          "internalType": "uint256",
          "name": "rollNumber",
          "type": "uint256"
        }
      ],
      "name": "getStudentById",
      "outputs": [
        {
          "components": [
            {
              "internalType": "string",
              "name": "name",
              "type": "string"
            },
            {
              "internalType": "uint256",
              "name": "rollNumber",
              "type": "uint256"
            },
            {
              "internalType": "uint256",
              "name": "rollDate",
              "type": "uint256"
            }
          ],
          "internalType": "struct ClassRegistration.Student",
          "name": "",
          "type": "tuple"
        }
      ],
      "stateMutability": "view",
      "type": "function"
    },
    {
      "inputs": [
        {
          "internalType": "string",
          "name": "studentName",
          "type": "string"
        },
        {
          "internalType": "uint256",
          "name": "rollNumber",
          "type": "uint256"
        }
      ],
      "name": "registerStudent",
      "outputs": [],
      "stateMutability": "nonpayable",
      "type": "function"
    },
    {
      "inputs": [
        {
          "internalType": "uint256",
          "name": "rollNumber",
          "type": "uint256"
        }
      ],
      "name": "removeStudent",
      "outputs": [],
      "stateMutability": "nonpayable",
      "type": "function"
    },
    {
      "inputs": [
        {
          "internalType": "uint256",
          "name": "",
          "type": "uint256"
        }
      ],
      "name": "students",
      "outputs": [
        {
          "internalType": "string",
          "name": "name",
          "type": "string"
        },
        {
          "internalType": "uint256",
          "name": "rollNumber",
          "type": "uint256"
        },
        {
          "internalType": "uint256",
          "name": "rollDate",
          "type": "uint256"
        }
      ],
      "stateMutability": "view",
      "type": "function"
    }
  ],
  "bytecode": "0x6080604052348015600f57600080fd5b50336000806101000a81548173ffffffffffffffffffffffffffffffffffffffff021916908373ffffffffffffffffffffffffffffffffffffffff160217905550610eea8061005f6000396000f3fe608060405234801561001057600080fd5b50600436106100575760003560e01c806306ead22e1461005c57806312a0b7441461008e5780636af83845146100aa578063c8fb0793146100c6578063f851a440146100f6575b600080fd5b6100766004803603810190610071919061068f565b610114565b6040516100859392919061075b565b60405180910390f35b6100a860048036038101906100a391906108ce565b6101c6565b005b6100c460048036038101906100bf919061068f565b610347565b005b6100e060048036038101906100db919061068f565b6104d4565b6040516100ed91906109d3565b60405180910390f35b6100fe610600565b60405161010b9190610a36565b60405180910390f35b600160205280600052604060002060009150905080600001805461013790610a80565b80601f016020809104026020016040519081016040528092919081815260200182805461016390610a80565b80156101b05780601f10610185576101008083540402835291602001916101b0565b820191906000526020600020905b81548152906001019060200180831161019357829003601f168201915b5050505050908060010154908060020154905083565b60008054906101000a900473ffffffffffffffffffffffffffffffffffffffff1673ffffffffffffffffffffffffffffffffffffffff163373ffffffffffffffffffffffffffffffffffffffff1614610254576040517f08c379a000000000000000000000000000000000000000000000000000000000815260040161024b90610b23565b60405180910390fd5b60006001600083815260200190815260200160002060020154146102ad576040517f08c379a00000000000000000000000000000000000000000000000000000000081526004016102a490610b8f565b60405180910390fd5b6040518060600160405280838152602001828152602001428152506001600083815260200190815260200160002060008201518160000190816102f09190610d5b565b5060208201518160010155604082015181600201559050507f076e240f09b33613e093cd7c7cb470424d6710c825e21560bcb17da8ef66863a82824260405161033b9392919061075b565b60405180910390a15050565b60008054906101000a900473ffffffffffffffffffffffffffffffffffffffff1673ffffffffffffffffffffffffffffffffffffffff163373ffffffffffffffffffffffffffffffffffffffff16146103d5576040517f08c379a00000000000000000000000000000000000000000000000000000000081526004016103cc90610b23565b60405180910390fd5b600060016000838152602001908152602001600020600201540361042e576040517f08c379a000000000000000000000000000000000000000000000000000000000815260040161042590610e79565b60405180910390fd5b60405180606001604052806040518060200160405280600081525081526020016000815260200160008152506001600083815260200190815260200160002060008201518160000190816104829190610d5b565b5060208201518160010155604082015181600201559050507f59341c48fd0b57ee9c153818be62372ef211cc499da6c2c6d5b8fe49721f36c5816040516104c99190610e99565b60405180910390a150565b6104dc610624565b6000600160008481526020019081526020016000206002015403610535576040517f08c379a000000000000000000000000000000000000000000000000000000000815260040161052c90610e79565b60405180910390fd5b6001600083815260200190815260200160002060405180606001604052908160008201805461056390610a80565b80601f016020809104026020016040519081016040528092919081815260200182805461058f90610a80565b80156105dc5780601f106105b1576101008083540402835291602001916105dc565b820191906000526020600020905b8154815290600101906020018083116105bf57829003601f168201915b50505050508152602001600182015481526020016002820154815250509050919050565b60008054906101000a900473ffffffffffffffffffffffffffffffffffffffff1681565b60405180606001604052806060815260200160008152602001600081525090565b6000604051905090565b600080fd5b600080fd5b6000819050919050565b61066c81610659565b811461067757600080fd5b50565b60008135905061068981610663565b92915050565b6000602082840312156106a5576106a461064f565b5b60006106b38482850161067a565b91505092915050565b600081519050919050565b600082825260208201905092915050565b60005b838110156106f65780820151818401526020810190506106db565b60008484015250505050565b6000601f19601f8301169050919050565b600061071e826106bc565b61072881856106c7565b93506107388185602086016106d8565b61074181610702565b840191505092915050565b61075581610659565b82525050565b600060608201905081810360008301526107758186610713565b9050610784602083018561074c565b610791604083018461074c565b949350505050565b600080fd5b600080fd5b7f4e487b7100000000000000000000000000000000000000000000000000000000600052604160045260246000fd5b6107db82610702565b810181811067ffffffffffffffff821117156107fa576107f96107a3565b5b80604052505050565b600061080d610645565b905061081982826107d2565b919050565b600067ffffffffffffffff821115610839576108386107a3565b5b61084282610702565b9050602081019050919050565b82818337600083830152505050565b600061087161086c8461081e565b610803565b90508281526020810184848401111561088d5761088c61079e565b5b61089884828561084f565b509392505050565b600082601f8301126108b5576108b4610799565b5b81356108c584826020860161085e565b91505092915050565b600080604083850312156108e5576108e461064f565b5b600083013567ffffffffffffffff81111561090357610902610654565b5b61090f858286016108a0565b92505060206109208582860161067a565b9150509250929050565b600082825260208201905092915050565b6000610946826106bc565b610950818561092a565b93506109608185602086016106d8565b61096981610702565b840191505092915050565b61097d81610659565b82525050565b600060608301600083015184820360008601526109a0828261093b565b91505060208301516109b56020860182610974565b5060408301516109c86040860182610974565b508091505092915050565b600060208201905081810360008301526109ed8184610983565b905092915050565b600073ffffffffffffffffffffffffffffffffffffffff82169050919050565b6000610a20826109f5565b9050919050565b610a3081610a15565b82525050565b6000602082019050610a4b6000830184610a27565b92915050565b7f4e487b7100000000000000000000000000000000000000000000000000000000600052602260045260246000fd5b60006002820490506001821680610a9857607f821691505b602082108103610aab57610aaa610a51565b5b50919050565b7f4f6e6c792061646d696e2063616e20726567697374657220612073747564656e60008201527f7400000000000000000000000000000000000000000000000000000000000000602082015250565b6000610b0d6021836106c7565b9150610b1882610ab1565b604082019050919050565b60006020820190508181036000830152610b3c81610b00565b9050919050565b7f53747564656e7420616c72656164792072656769737465726564000000000000600082015250565b6000610b79601a836106c7565b9150610b8482610b43565b602082019050919050565b60006020820190508181036000830152610ba881610b6c565b9050919050565b60008190508160005260206000209050919050565b60006020601f8301049050919050565b600082821b905092915050565b600060088302610c117fffffffffffffffffffffffffffffffffffffffffffffffffffffffffffffffff82610bd4565b610c1b8683610bd4565b95508019841693508086168417925050509392505050565b6000819050919050565b6000610c58610c53610c4e84610659565b610c33565b610659565b9050919050565b6000819050919050565b610c7283610c3d565b610c86610c7e82610c5f565b848454610be1565b825550505050565b600090565b610c9b610c8e565b610ca6818484610c69565b505050565b5b81811015610cca57610cbf600082610c93565b600181019050610cac565b5050565b601f821115610d0f57610ce081610baf565b610ce984610bc4565b81016020851015610cf8578190505b610d0c610d0485610bc4565b830182610cab565b50505b505050565b600082821c905092915050565b6000610d3260001984600802610d14565b1980831691505092915050565b6000610d4b8383610d21565b9150826002028217905092915050565b610d64826106bc565b67ffffffffffffffff811115610d7d57610d7c6107a3565b5b610d878254610a80565b610d92828285610cce565b600060209050601f831160018114610dc55760008415610db3578287015190505b610dbd8582610d3f565b865550610e25565b601f198416610dd386610baf565b60005b82811015610dfb57848901518255600182019150602085019450602081019050610dd6565b86831015610e185784890151610e14601f891682610d21565b8355505b6001600288020188555050505b505050505050565b7f53747564656e74206e6f74207265676973746572656400000000000000000000600082015250565b6000610e636016836106c7565b9150610e6e82610e2d565b602082019050919050565b60006020820190508181036000830152610e9281610e56565b9050919050565b6000602082019050610eae600083018461074c565b9291505056fea2646970667358221220131418e0037fa6926b1777a7c63400a8c6891ff2834029b5f0d8020d5f7b579164736f6c634300081c0033",
  "linkReferences": {},
  "deployedLinkReferences": {}
}